{
  "contractName": "Buy_stocks",
  "abi": [
    {
      "inputs": [
        {
          "internalType": "uint256",
          "name": "",
          "type": "uint256"
        }
      ],
      "name": "PaymentTransactions",
      "outputs": [
        {
          "internalType": "string",
          "name": "Buyer",
          "type": "string"
        },
        {
          "internalType": "uint256",
          "name": "price",
          "type": "uint256"
        },
        {
          "components": [
            {
              "internalType": "uint256",
              "name": "timestamp",
              "type": "uint256"
            },
            {
              "internalType": "uint256",
              "name": "high",
              "type": "uint256"
            },
            {
              "internalType": "uint256",
              "name": "low",
              "type": "uint256"
            },
            {
              "internalType": "uint256",
              "name": "open",
              "type": "uint256"
            },
            {
              "internalType": "uint256",
              "name": "close",
              "type": "uint256"
            },
            {
              "internalType": "uint256",
              "name": "volume",
              "type": "uint256"
            },
            {
              "internalType": "string",
              "name": "owner",
              "type": "string"
            }
          ],
          "internalType": "struct Buy_stocks.stock",
          "name": "stock_",
          "type": "tuple"
        }
      ],
      "stateMutability": "view",
      "type": "function",
      "constant": true
    },
    {
      "inputs": [
        {
          "internalType": "uint256",
          "name": "",
          "type": "uint256"
        }
      ],
      "name": "SalesTransactions",
      "outputs": [
        {
          "internalType": "uint256",
          "name": "_id",
          "type": "uint256"
        },
        {
          "internalType": "string",
          "name": "seller",
          "type": "string"
        },
        {
          "components": [
            {
              "internalType": "uint256",
              "name": "timestamp",
              "type": "uint256"
            },
            {
              "internalType": "uint256",
              "name": "high",
              "type": "uint256"
            },
            {
              "internalType": "uint256",
              "name": "low",
              "type": "uint256"
            },
            {
              "internalType": "uint256",
              "name": "open",
              "type": "uint256"
            },
            {
              "internalType": "uint256",
              "name": "close",
              "type": "uint256"
            },
            {
              "internalType": "uint256",
              "name": "volume",
              "type": "uint256"
            },
            {
              "internalType": "string",
              "name": "owner",
              "type": "string"
            }
          ],
          "internalType": "struct Buy_stocks.stock",
          "name": "stock_",
          "type": "tuple"
        },
        {
          "internalType": "uint256",
          "name": "sale_price",
          "type": "uint256"
        },
        {
          "internalType": "string",
          "name": "customer",
          "type": "string"
        },
        {
          "internalType": "bool",
          "name": "for_sale",
          "type": "bool"
        },
        {
          "internalType": "bool",
          "name": "sold",
          "type": "bool"
        }
      ],
      "stateMutability": "view",
      "type": "function",
      "constant": true
    },
    {
      "inputs": [],
      "name": "size",
      "outputs": [
        {
          "internalType": "uint256",
          "name": "",
          "type": "uint256"
        }
      ],
      "stateMutability": "view",
      "type": "function",
      "constant": true
    },
    {
      "inputs": [],
      "name": "size2",
      "outputs": [
        {
          "internalType": "uint256",
          "name": "",
          "type": "uint256"
        }
      ],
      "stateMutability": "view",
      "type": "function",
      "constant": true
    },
    {
      "inputs": [],
      "name": "size3",
      "outputs": [
        {
          "internalType": "uint256",
          "name": "",
          "type": "uint256"
        }
      ],
      "stateMutability": "view",
      "type": "function",
      "constant": true
    },
    {
      "inputs": [
        {
          "internalType": "string",
          "name": "",
          "type": "string"
        }
      ],
      "name": "wallets",
      "outputs": [
        {
          "internalType": "string",
          "name": "owner",
          "type": "string"
        },
        {
          "internalType": "uint256",
          "name": "balance",
          "type": "uint256"
        }
      ],
      "stateMutability": "view",
      "type": "function",
      "constant": true
    },
    {
      "inputs": [
        {
          "internalType": "uint256",
          "name": "timestamp",
          "type": "uint256"
        },
        {
          "internalType": "uint256",
          "name": "high",
          "type": "uint256"
        },
        {
          "internalType": "uint256",
          "name": "low",
          "type": "uint256"
        },
        {
          "internalType": "uint256",
          "name": "open",
          "type": "uint256"
        },
        {
          "internalType": "uint256",
          "name": "close",
          "type": "uint256"
        },
        {
          "internalType": "uint256",
          "name": "volume",
          "type": "uint256"
        },
        {
          "internalType": "string",
          "name": "Buyer",
          "type": "string"
        },
        {
          "internalType": "string",
          "name": "owner",
          "type": "string"
        }
      ],
      "name": "addPaymentTransaction",
      "outputs": [
        {
          "internalType": "bool",
          "name": "success",
          "type": "bool"
        }
      ],
      "stateMutability": "nonpayable",
      "type": "function"
    },
    {
      "inputs": [
        {
          "internalType": "uint256",
          "name": "timestamp",
          "type": "uint256"
        },
        {
          "internalType": "uint256",
          "name": "high",
          "type": "uint256"
        },
        {
          "internalType": "uint256",
          "name": "low",
          "type": "uint256"
        },
        {
          "internalType": "uint256",
          "name": "sale_price",
          "type": "uint256"
        },
        {
          "internalType": "uint256",
          "name": "open",
          "type": "uint256"
        },
        {
          "internalType": "string",
          "name": "Financial_Instrument",
          "type": "string"
        },
        {
          "internalType": "uint256",
          "name": "close",
          "type": "uint256"
        },
        {
          "internalType": "uint256",
          "name": "volume",
          "type": "uint256"
        },
        {
          "internalType": "string",
          "name": "seller",
          "type": "string"
        }
      ],
      "name": "sellShareofaStock",
      "outputs": [
        {
          "components": [
            {
              "internalType": "uint256",
              "name": "_id",
              "type": "uint256"
            },
            {
              "internalType": "string",
              "name": "seller",
              "type": "string"
            },
            {
              "components": [
                {
                  "internalType": "uint256",
                  "name": "timestamp",
                  "type": "uint256"
                },
                {
                  "internalType": "uint256",
                  "name": "high",
                  "type": "uint256"
                },
                {
                  "internalType": "uint256",
                  "name": "low",
                  "type": "uint256"
                },
                {
                  "internalType": "uint256",
                  "name": "open",
                  "type": "uint256"
                },
                {
                  "internalType": "uint256",
                  "name": "close",
                  "type": "uint256"
                },
                {
                  "internalType": "uint256",
                  "name": "volume",
                  "type": "uint256"
                },
                {
                  "internalType": "string",
                  "name": "owner",
                  "type": "string"
                }
              ],
              "internalType": "struct Buy_stocks.stock",
              "name": "stock_",
              "type": "tuple"
            },
            {
              "internalType": "uint256",
              "name": "sale_price",
              "type": "uint256"
            },
            {
              "internalType": "string",
              "name": "customer",
              "type": "string"
            },
            {
              "internalType": "bool",
              "name": "for_sale",
              "type": "bool"
            },
            {
              "internalType": "bool",
              "name": "sold",
              "type": "bool"
            }
          ],
          "internalType": "struct Buy_stocks.Sale",
          "name": "s",
          "type": "tuple"
        }
      ],
      "stateMutability": "nonpayable",
      "type": "function"
    },
    {
      "inputs": [
        {
          "internalType": "uint256",
          "name": "_id",
          "type": "uint256"
        },
        {
          "internalType": "string",
          "name": "customer",
          "type": "string"
        }
      ],
      "name": "UpdatesellShareofAstock",
      "outputs": [
        {
          "components": [
            {
              "internalType": "uint256",
              "name": "_id",
              "type": "uint256"
            },
            {
              "internalType": "string",
              "name": "seller",
              "type": "string"
            },
            {
              "components": [
                {
                  "internalType": "uint256",
                  "name": "timestamp",
                  "type": "uint256"
                },
                {
                  "internalType": "uint256",
                  "name": "high",
                  "type": "uint256"
                },
                {
                  "internalType": "uint256",
                  "name": "low",
                  "type": "uint256"
                },
                {
                  "internalType": "uint256",
                  "name": "open",
                  "type": "uint256"
                },
                {
                  "internalType": "uint256",
                  "name": "close",
                  "type": "uint256"
                },
                {
                  "internalType": "uint256",
                  "name": "volume",
                  "type": "uint256"
                },
                {
                  "internalType": "string",
                  "name": "owner",
                  "type": "string"
                }
              ],
              "internalType": "struct Buy_stocks.stock",
              "name": "stock_",
              "type": "tuple"
            },
            {
              "internalType": "uint256",
              "name": "sale_price",
              "type": "uint256"
            },
            {
              "internalType": "string",
              "name": "customer",
              "type": "string"
            },
            {
              "internalType": "bool",
              "name": "for_sale",
              "type": "bool"
            },
            {
              "internalType": "bool",
              "name": "sold",
              "type": "bool"
            }
          ],
          "internalType": "struct Buy_stocks.Sale",
          "name": "s",
          "type": "tuple"
        }
      ],
      "stateMutability": "nonpayable",
      "type": "function"
    },
    {
      "inputs": [],
      "name": "getPaymentTransactionsList",
      "outputs": [
        {
          "components": [
            {
              "internalType": "string",
              "name": "Buyer",
              "type": "string"
            },
            {
              "internalType": "uint256",
              "name": "price",
              "type": "uint256"
            },
            {
              "components": [
                {
                  "internalType": "uint256",
                  "name": "timestamp",
                  "type": "uint256"
                },
                {
                  "internalType": "uint256",
                  "name": "high",
                  "type": "uint256"
                },
                {
                  "internalType": "uint256",
                  "name": "low",
                  "type": "uint256"
                },
                {
                  "internalType": "uint256",
                  "name": "open",
                  "type": "uint256"
                },
                {
                  "internalType": "uint256",
                  "name": "close",
                  "type": "uint256"
                },
                {
                  "internalType": "uint256",
                  "name": "volume",
                  "type": "uint256"
                },
                {
                  "internalType": "string",
                  "name": "owner",
                  "type": "string"
                }
              ],
              "internalType": "struct Buy_stocks.stock",
              "name": "stock_",
              "type": "tuple"
            }
          ],
          "internalType": "struct Buy_stocks.payment[]",
          "name": "",
          "type": "tuple[]"
        }
      ],
      "stateMutability": "view",
      "type": "function",
      "constant": true
    },
    {
      "inputs": [],
      "name": "getSalesTransactionsList",
      "outputs": [
        {
          "components": [
            {
              "internalType": "uint256",
              "name": "_id",
              "type": "uint256"
            },
            {
              "internalType": "string",
              "name": "seller",
              "type": "string"
            },
            {
              "components": [
                {
                  "internalType": "uint256",
                  "name": "timestamp",
                  "type": "uint256"
                },
                {
                  "internalType": "uint256",
                  "name": "high",
                  "type": "uint256"
                },
                {
                  "internalType": "uint256",
                  "name": "low",
                  "type": "uint256"
                },
                {
                  "internalType": "uint256",
                  "name": "open",
                  "type": "uint256"
                },
                {
                  "internalType": "uint256",
                  "name": "close",
                  "type": "uint256"
                },
                {
                  "internalType": "uint256",
                  "name": "volume",
                  "type": "uint256"
                },
                {
                  "internalType": "string",
                  "name": "owner",
                  "type": "string"
                }
              ],
              "internalType": "struct Buy_stocks.stock",
              "name": "stock_",
              "type": "tuple"
            },
            {
              "internalType": "uint256",
              "name": "sale_price",
              "type": "uint256"
            },
            {
              "internalType": "string",
              "name": "customer",
              "type": "string"
            },
            {
              "internalType": "bool",
              "name": "for_sale",
              "type": "bool"
            },
            {
              "internalType": "bool",
              "name": "sold",
              "type": "bool"
            }
          ],
          "internalType": "struct Buy_stocks.Sale[]",
          "name": "",
          "type": "tuple[]"
        }
      ],
      "stateMutability": "view",
      "type": "function",
      "constant": true
    },
    {
      "inputs": [
        {
          "internalType": "string",
          "name": "owner",
          "type": "string"
        },
        {
          "internalType": "uint256",
          "name": "amount",
          "type": "uint256"
        }
      ],
      "name": "addFundsToWallet",
      "outputs": [
        {
          "components": [
            {
              "internalType": "string",
              "name": "owner",
              "type": "string"
            },
            {
              "internalType": "uint256",
              "name": "balance",
              "type": "uint256"
            }
          ],
          "internalType": "struct Buy_stocks.wallet",
          "name": "w",
          "type": "tuple"
        }
      ],
      "stateMutability": "nonpayable",
      "type": "function"
    },
    {
      "inputs": [
        {
          "internalType": "string",
          "name": "sender",
          "type": "string"
        },
        {
          "internalType": "string",
          "name": "reciever",
          "type": "string"
        },
        {
          "internalType": "uint256",
          "name": "amount",
          "type": "uint256"
        }
      ],
      "name": "walletexchange",
      "outputs": [],
      "stateMutability": "nonpayable",
      "type": "function"
    }
  ],
  "bytecode": "0x608060405260006003556000600455600060055534801561001f57600080fd5b50612a3d8061002f6000396000f3fe608060405234801561001057600080fd5b50600436106100cf5760003560e01c8063d01b30ee1161008c578063d298d6b811610066578063d298d6b81461022b578063e6654e4e1461025b578063f78f260614610279578063f8a6a471146102af576100cf565b8063d01b30ee146101d3578063d10d7919146101f1578063d1120db01461020d576100cf565b806322b8eb9b146100d457806357198021146101065780636a5e3edb1461013657806372f179f814610154578063949d225d146101855780639823d71b146101a3575b600080fd5b6100ee60048036038101906100e99190611bc0565b6102df565b6040516100fd93929190611d8a565b60405180910390f35b610120600480360381019061011b9190611f04565b610469565b60405161012d91906120c1565b60405180910390f35b61013e6109ca565b60405161014b91906121fc565b60405180910390f35b61016e6004803603810190610169919061221e565b610c08565b60405161017c929190612267565b60405180910390f35b61018d610cca565b60405161019a9190612297565b60405180910390f35b6101bd60048036038101906101b891906122b2565b610cd0565b6040516101ca91906120c1565b60405180910390f35b6101db61111d565b6040516101e89190612297565b60405180910390f35b61020b600480360381019061020691906123b4565b611123565b005b61021561123a565b6040516102229190612297565b60405180910390f35b6102456004803603810190610240919061243f565b611240565b604051610252919061253c565b60405180910390f35b61026361135c565b60405161027091906126c3565b60405180910390f35b610293600480360381019061028e9190611bc0565b61166c565b6040516102a697969594939291906126e5565b60405180910390f35b6102c960048036038101906102c49190612769565b6118b0565b6040516102d69190612802565b60405180910390f35b600160205280600052604060002060009150905080600001805461030290612853565b80601f016020809104026020016040519081016040528092919081815260200182805461032e90612853565b801561037b5780601f106103505761010080835404028352916020019161037b565b820191906000526020600020905b81548152906001019060200180831161035e57829003601f168201915b505050505090806001015490806002016040518060e00160405290816000820154815260200160018201548152602001600282015481526020016003820154815260200160048201548152602001600582015481526020016006820180546103e290612853565b80601f016020809104026020016040519081016040528092919081815260200182805461040e90612853565b801561045b5780601f106104305761010080835404028352916020019161045b565b820191906000526020600020905b81548152906001019060200180831161043e57829003601f168201915b505050505081525050905083565b610471611a0e565b8160026000858152602001908152602001600020600a01908051906020019061049b929190611a55565b50600160026000858152602001908152602001600020600b0160016101000a81548160ff0219169083151502179055506000600260008581526020019081526020016000206002016040518060e001604052908160008201548152602001600182015481526020016002820154815260200160038201548152602001600482015481526020016005820154815260200160068201805461053a90612853565b80601f016020809104026020016040519081016040528092919081815260200182805461056690612853565b80156105b35780601f10610588576101008083540402835291602001916105b3565b820191906000526020600020905b81548152906001019060200180831161059657829003601f168201915b50505050508152505090506002600085815260200190815260200160002060010180546105df90612853565b80601f016020809104026020016040519081016040528092919081815260200182805461060b90612853565b80156106585780601f1061062d57610100808354040283529160200191610658565b820191906000526020600020905b81548152906001019060200180831161063b57829003601f168201915b50505050508160c0018190525060016003600082825461067891906128b3565b925050819055506040518060600160405280848152602001600260008781526020019081526020016000206009015481526020018281525060016000600354815260200190815260200160002060008201518160000190805190602001906106e1929190611a55565b5060208201518160010155604082015181600201600082015181600001556020820151816001015560408201518160020155606082015181600301556080820151816004015560a0820151816005015560c082015181600601908051906020019061074d929190611a55565b505050905050600260008581526020019081526020016000206040518060e00160405290816000820154815260200160018201805461078b90612853565b80601f01602080910402602001604051908101604052809291908181526020018280546107b790612853565b80156108045780601f106107d957610100808354040283529160200191610804565b820191906000526020600020905b8154815290600101906020018083116107e757829003601f168201915b50505050508152602001600282016040518060e001604052908160008201548152602001600182015481526020016002820154815260200160038201548152602001600482015481526020016005820154815260200160068201805461086990612853565b80601f016020809104026020016040519081016040528092919081815260200182805461089590612853565b80156108e25780601f106108b7576101008083540402835291602001916108e2565b820191906000526020600020905b8154815290600101906020018083116108c557829003601f168201915b505050505081525050815260200160098201548152602001600a8201805461090990612853565b80601f016020809104026020016040519081016040528092919081815260200182805461093590612853565b80156109825780601f1061095757610100808354040283529160200191610982565b820191906000526020600020905b81548152906001019060200180831161096557829003601f168201915b50505050508152602001600b820160009054906101000a900460ff16151515158152602001600b820160019054906101000a900460ff16151515158152505091505092915050565b6060600060035467ffffffffffffffff8111156109ea576109e9611dd9565b5b604051908082528060200260200182016040528015610a2357816020015b610a10611adb565b815260200190600190039081610a085790505b50905060005b600354811015610c005760016000828152602001908152602001600020604051806060016040529081600082018054610a6190612853565b80601f0160208091040260200160405190810160405280929190818152602001828054610a8d90612853565b8015610ada5780601f10610aaf57610100808354040283529160200191610ada565b820191906000526020600020905b815481529060010190602001808311610abd57829003601f168201915b5050505050815260200160018201548152602001600282016040518060e0016040529081600082015481526020016001820154815260200160028201548152602001600382015481526020016004820154815260200160058201548152602001600682018054610b4990612853565b80601f0160208091040260200160405190810160405280929190818152602001828054610b7590612853565b8015610bc25780601f10610b9757610100808354040283529160200191610bc2565b820191906000526020600020905b815481529060010190602001808311610ba557829003601f168201915b50505050508152505081525050828281518110610be257610be1612909565b5b60200260200101819052508080610bf890612938565b915050610a29565b508091505090565b600081805160208101820180518482526020830160208501208183528095505050505050600091509050806000018054610c4190612853565b80601f0160208091040260200160405190810160405280929190818152602001828054610c6d90612853565b8015610cba5780601f10610c8f57610100808354040283529160200191610cba565b820191906000526020600020905b815481529060010190602001808311610c9d57829003601f168201915b5050505050908060010154905082565b60035481565b610cd8611a0e565b600160046000828254610ceb91906128b3565b925050819055506040518060e0016040528060045481526020018381526020016040518060e001604052808d81526020018c81526020018b81526020018981526020018781526020018681526020018881525081526020018881526020016040518060400160405280600681526020017f7878787878780000000000000000000000000000000000000000000000000000815250815260200160011515815260200160001515815250600260006004548152602001908152602001600020600082015181600001556020820151816001019080519060200190610dcf929190611a55565b50604082015181600201600082015181600001556020820151816001015560408201518160020155606082015181600301556080820151816004015560a0820151816005015560c0820151816006019080519060200190610e31929190611a55565b50505060608201518160090155608082015181600a019080519060200190610e5a929190611a55565b5060a082015181600b0160006101000a81548160ff02191690831515021790555060c082015181600b0160016101000a81548160ff0219169083151502179055509050506002600060045481526020019081526020016000206040518060e001604052908160008201548152602001600182018054610ed890612853565b80601f0160208091040260200160405190810160405280929190818152602001828054610f0490612853565b8015610f515780601f10610f2657610100808354040283529160200191610f51565b820191906000526020600020905b815481529060010190602001808311610f3457829003601f168201915b50505050508152602001600282016040518060e0016040529081600082015481526020016001820154815260200160028201548152602001600382015481526020016004820154815260200160058201548152602001600682018054610fb690612853565b80601f0160208091040260200160405190810160405280929190818152602001828054610fe290612853565b801561102f5780601f106110045761010080835404028352916020019161102f565b820191906000526020600020905b81548152906001019060200180831161101257829003601f168201915b505050505081525050815260200160098201548152602001600a8201805461105690612853565b80601f016020809104026020016040519081016040528092919081815260200182805461108290612853565b80156110cf5780601f106110a4576101008083540402835291602001916110cf565b820191906000526020600020905b8154815290600101906020018083116110b257829003601f168201915b50505050508152602001600b820160009054906101000a900460ff16151515158152602001600b820160019054906101000a900460ff16151515158152505090509998505050505050505050565b60055481565b60405180604001604052808481526020018260008660405161114591906129bc565b90815260200160405180910390206001015461116191906129d3565b81525060008460405161117491906129bc565b9081526020016040518091039020600082015181600001908051906020019061119e929190611a55565b50602082015181600101559050506040518060400160405280838152602001826000856040516111ce91906129bc565b9081526020016040518091039020600101546111ea91906128b3565b8152506000836040516111fd91906129bc565b90815260200160405180910390206000820151816000019080519060200190611227929190611a55565b5060208201518160010155905050505050565b60045481565b600060016003600082825461125591906128b3565b9250508190555060405180606001604052808481526020018681526020016040518060e001604052808c81526020018b81526020018a81526020018981526020018881526020018781526020018581525081525060016000600354815260200190815260200160002060008201518160000190805190602001906112da929190611a55565b5060208201518160010155604082015181600201600082015181600001556020820151816001015560408201518160020155606082015181600301556080820151816004015560a0820151816005015560c0820151816006019080519060200190611346929190611a55565b5050509050506001905098975050505050505050565b6060600060035467ffffffffffffffff81111561137c5761137b611dd9565b5b6040519080825280602002602001820160405280156113b557816020015b6113a2611a0e565b81526020019060019003908161139a5790505b50905060005b60035481101561166457600260008281526020019081526020016000206040518060e0016040529081600082015481526020016001820180546113fd90612853565b80601f016020809104026020016040519081016040528092919081815260200182805461142990612853565b80156114765780601f1061144b57610100808354040283529160200191611476565b820191906000526020600020905b81548152906001019060200180831161145957829003601f168201915b50505050508152602001600282016040518060e00160405290816000820154815260200160018201548152602001600282015481526020016003820154815260200160048201548152602001600582015481526020016006820180546114db90612853565b80601f016020809104026020016040519081016040528092919081815260200182805461150790612853565b80156115545780601f1061152957610100808354040283529160200191611554565b820191906000526020600020905b81548152906001019060200180831161153757829003601f168201915b505050505081525050815260200160098201548152602001600a8201805461157b90612853565b80601f01602080910402602001604051908101604052809291908181526020018280546115a790612853565b80156115f45780601f106115c9576101008083540402835291602001916115f4565b820191906000526020600020905b8154815290600101906020018083116115d757829003601f168201915b50505050508152602001600b820160009054906101000a900460ff16151515158152602001600b820160019054906101000a900460ff16151515158152505082828151811061164657611645612909565b5b6020026020010181905250808061165c90612938565b9150506113bb565b508091505090565b600260205280600052604060002060009150905080600001549080600101805461169590612853565b80601f01602080910402602001604051908101604052809291908181526020018280546116c190612853565b801561170e5780601f106116e35761010080835404028352916020019161170e565b820191906000526020600020905b8154815290600101906020018083116116f157829003601f168201915b505050505090806002016040518060e001604052908160008201548152602001600182015481526020016002820154815260200160038201548152602001600482015481526020016005820154815260200160068201805461176f90612853565b80601f016020809104026020016040519081016040528092919081815260200182805461179b90612853565b80156117e85780601f106117bd576101008083540402835291602001916117e8565b820191906000526020600020905b8154815290600101906020018083116117cb57829003601f168201915b5050505050815250509080600901549080600a01805461180790612853565b80601f016020809104026020016040519081016040528092919081815260200182805461183390612853565b80156118805780601f1061185557610100808354040283529160200191611880565b820191906000526020600020905b81548152906001019060200180831161186357829003601f168201915b50505050509080600b0160009054906101000a900460ff169080600b0160019054906101000a900460ff16905087565b6118b8611b02565b6040518060400160405280848152602001836000866040516118da91906129bc565b9081526020016040518091039020600101546118f691906128b3565b81525060008460405161190991906129bc565b90815260200160405180910390206000820151816000019080519060200190611933929190611a55565b506020820151816001015590505060008360405161195191906129bc565b908152602001604051809103902060405180604001604052908160008201805461197a90612853565b80601f01602080910402602001604051908101604052809291908181526020018280546119a690612853565b80156119f35780601f106119c8576101008083540402835291602001916119f3565b820191906000526020600020905b8154815290600101906020018083116119d657829003601f168201915b50505050508152602001600182015481525050905092915050565b6040518060e001604052806000815260200160608152602001611a2f611b1c565b815260200160008152602001606081526020016000151581526020016000151581525090565b828054611a6190612853565b90600052602060002090601f016020900481019282611a835760008555611aca565b82601f10611a9c57805160ff1916838001178555611aca565b82800160010185558215611aca579182015b82811115611ac9578251825591602001919060010190611aae565b5b509050611ad79190611b59565b5090565b60405180606001604052806060815260200160008152602001611afc611b1c565b81525090565b604051806040016040528060608152602001600081525090565b6040518060e00160405280600081526020016000815260200160008152602001600081526020016000815260200160008152602001606081525090565b5b80821115611b72576000816000905550600101611b5a565b5090565b6000604051905090565b600080fd5b600080fd5b6000819050919050565b611b9d81611b8a565b8114611ba857600080fd5b50565b600081359050611bba81611b94565b92915050565b600060208284031215611bd657611bd5611b80565b5b6000611be484828501611bab565b91505092915050565b600081519050919050565b600082825260208201905092915050565b60005b83811015611c27578082015181840152602081019050611c0c565b83811115611c36576000848401525b50505050565b6000601f19601f8301169050919050565b6000611c5882611bed565b611c628185611bf8565b9350611c72818560208601611c09565b611c7b81611c3c565b840191505092915050565b611c8f81611b8a565b82525050565b611c9e81611b8a565b82525050565b600082825260208201905092915050565b6000611cc082611bed565b611cca8185611ca4565b9350611cda818560208601611c09565b611ce381611c3c565b840191505092915050565b600060e083016000830151611d066000860182611c95565b506020830151611d196020860182611c95565b506040830151611d2c6040860182611c95565b506060830151611d3f6060860182611c95565b506080830151611d526080860182611c95565b5060a0830151611d6560a0860182611c95565b5060c083015184820360c0860152611d7d8282611cb5565b9150508091505092915050565b60006060820190508181036000830152611da48186611c4d565b9050611db36020830185611c86565b8181036040830152611dc58184611cee565b9050949350505050565b600080fd5b600080fd5b7f4e487b7100000000000000000000000000000000000000000000000000000000600052604160045260246000fd5b611e1182611c3c565b810181811067ffffffffffffffff82111715611e3057611e2f611dd9565b5b80604052505050565b6000611e43611b76565b9050611e4f8282611e08565b919050565b600067ffffffffffffffff821115611e6f57611e6e611dd9565b5b611e7882611c3c565b9050602081019050919050565b82818337600083830152505050565b6000611ea7611ea284611e54565b611e39565b905082815260208101848484011115611ec357611ec2611dd4565b5b611ece848285611e85565b509392505050565b600082601f830112611eeb57611eea611dcf565b5b8135611efb848260208601611e94565b91505092915050565b60008060408385031215611f1b57611f1a611b80565b5b6000611f2985828601611bab565b925050602083013567ffffffffffffffff811115611f4a57611f49611b85565b5b611f5685828601611ed6565b9150509250929050565b600060e083016000830151611f786000860182611c95565b506020830151611f8b6020860182611c95565b506040830151611f9e6040860182611c95565b506060830151611fb16060860182611c95565b506080830151611fc46080860182611c95565b5060a0830151611fd760a0860182611c95565b5060c083015184820360c0860152611fef8282611cb5565b9150508091505092915050565b60008115159050919050565b61201181611ffc565b82525050565b600060e08301600083015161202f6000860182611c95565b50602083015184820360208601526120478282611cb5565b915050604083015184820360408601526120618282611f60565b91505060608301516120766060860182611c95565b506080830151848203608086015261208e8282611cb5565b91505060a08301516120a360a0860182612008565b5060c08301516120b660c0860182612008565b508091505092915050565b600060208201905081810360008301526120db8184612017565b905092915050565b600081519050919050565b600082825260208201905092915050565b6000819050602082019050919050565b6000606083016000830151848203600086015261212c8282611cb5565b91505060208301516121416020860182611c95565b50604083015184820360408601526121598282611f60565b9150508091505092915050565b6000612172838361210f565b905092915050565b6000602082019050919050565b6000612192826120e3565b61219c81856120ee565b9350836020820285016121ae856120ff565b8060005b858110156121ea57848403895281516121cb8582612166565b94506121d68361217a565b925060208a019950506001810190506121b2565b50829750879550505050505092915050565b600060208201905081810360008301526122168184612187565b905092915050565b60006020828403121561223457612233611b80565b5b600082013567ffffffffffffffff81111561225257612251611b85565b5b61225e84828501611ed6565b91505092915050565b600060408201905081810360008301526122818185611c4d565b90506122906020830184611c86565b9392505050565b60006020820190506122ac6000830184611c86565b92915050565b60008060008060008060008060006101208a8c0312156122d5576122d4611b80565b5b60006122e38c828d01611bab565b99505060206122f48c828d01611bab565b98505060406123058c828d01611bab565b97505060606123168c828d01611bab565b96505060806123278c828d01611bab565b95505060a08a013567ffffffffffffffff81111561234857612347611b85565b5b6123548c828d01611ed6565b94505060c06123658c828d01611bab565b93505060e06123768c828d01611bab565b9250506101008a013567ffffffffffffffff81111561239857612397611b85565b5b6123a48c828d01611ed6565b9150509295985092959850929598565b6000806000606084860312156123cd576123cc611b80565b5b600084013567ffffffffffffffff8111156123eb576123ea611b85565b5b6123f786828701611ed6565b935050602084013567ffffffffffffffff81111561241857612417611b85565b5b61242486828701611ed6565b925050604061243586828701611bab565b9150509250925092565b600080600080600080600080610100898b0312156124605761245f611b80565b5b600061246e8b828c01611bab565b985050602061247f8b828c01611bab565b97505060406124908b828c01611bab565b96505060606124a18b828c01611bab565b95505060806124b28b828c01611bab565b94505060a06124c38b828c01611bab565b93505060c089013567ffffffffffffffff8111156124e4576124e3611b85565b5b6124f08b828c01611ed6565b92505060e089013567ffffffffffffffff81111561251157612510611b85565b5b61251d8b828c01611ed6565b9150509295985092959890939650565b61253681611ffc565b82525050565b6000602082019050612551600083018461252d565b92915050565b600081519050919050565b600082825260208201905092915050565b6000819050602082019050919050565b600060e08301600083015161259b6000860182611c95565b50602083015184820360208601526125b38282611cb5565b915050604083015184820360408601526125cd8282611f60565b91505060608301516125e26060860182611c95565b50608083015184820360808601526125fa8282611cb5565b91505060a083015161260f60a0860182612008565b5060c083015161262260c0860182612008565b508091505092915050565b60006126398383612583565b905092915050565b6000602082019050919050565b600061265982612557565b6126638185612562565b93508360208202850161267585612573565b8060005b858110156126b15784840389528151612692858261262d565b945061269d83612641565b925060208a01995050600181019050612679565b50829750879550505050505092915050565b600060208201905081810360008301526126dd818461264e565b905092915050565b600060e0820190506126fa600083018a611c86565b818103602083015261270c8189611c4d565b905081810360408301526127208188611cee565b905061272f6060830187611c86565b81810360808301526127418186611c4d565b905061275060a083018561252d565b61275d60c083018461252d565b98975050505050505050565b600080604083850312156127805761277f611b80565b5b600083013567ffffffffffffffff81111561279e5761279d611b85565b5b6127aa85828601611ed6565b92505060206127bb85828601611bab565b9150509250929050565b600060408301600083015184820360008601526127e28282611cb5565b91505060208301516127f76020860182611c95565b508091505092915050565b6000602082019050818103600083015261281c81846127c5565b905092915050565b7f4e487b7100000000000000000000000000000000000000000000000000000000600052602260045260246000fd5b6000600282049050600182168061286b57607f821691505b60208210810361287e5761287d612824565b5b50919050565b7f4e487b7100000000000000000000000000000000000000000000000000000000600052601160045260246000fd5b60006128be82611b8a565b91506128c983611b8a565b9250827fffffffffffffffffffffffffffffffffffffffffffffffffffffffffffffffff038211156128fe576128fd612884565b5b828201905092915050565b7f4e487b7100000000000000000000000000000000000000000000000000000000600052603260045260246000fd5b600061294382611b8a565b91507fffffffffffffffffffffffffffffffffffffffffffffffffffffffffffffffff820361297557612974612884565b5b600182019050919050565b600081905092915050565b600061299682611bed565b6129a08185612980565b93506129b0818560208601611c09565b80840191505092915050565b60006129c8828461298b565b915081905092915050565b60006129de82611b8a565b91506129e983611b8a565b9250828210156129fc576129fb612884565b5b82820390509291505056fea26469706673582212201e9b681f64dcc7a8df15e92438ae01f0a4feda3974e29cd9866e1ca03d4b918764736f6c634300080e0033",
  "immutableReferences": {},
  "source": "pragma solidity >=0.4.22 <0.9.0;\r\ncontract Buy_stocks {\r\n    struct stock {\r\n        uint256 timestamp;\r\n        uint256 high;\r\n        uint256 low;\r\n        uint256 open;\r\n        uint256 close;\r\n        uint volume;\r\n        string owner;\r\n    }\r\n    struct payment {\r\n         string Buyer;\r\n         uint256 price;\r\n         stock stock_;\r\n    }\r\n  \r\n    struct Sale {\r\n        uint256 _id;\r\n        string seller;\r\n        stock stock_;\r\n        uint sale_price;\r\n        string  customer;\r\n        bool for_sale;\r\n        bool sold;\r\n    }\r\n    struct wallet {\r\n        string owner;\r\n         uint256 balance;\r\n    }\r\n    mapping(string=>wallet) public wallets;\r\n    mapping (uint=>payment)  public PaymentTransactions;\r\n    mapping(uint=>Sale) public SalesTransactions; \r\n    \r\n    uint public size=0;\r\n    uint public size2=0;\r\n    uint public size3=0;\r\n\r\n   function addPaymentTransaction(uint256 timestamp,\r\n\r\n   uint256 high,uint256 low,uint256 open,uint256 close\r\n   ,uint volume,string memory Buyer,string memory owner) public  returns (bool success)\r\n   {\r\n    size+=1;\r\n    \r\n    PaymentTransactions[size]=payment(Buyer,close, stock(timestamp,high,low,open,close,volume,owner));\r\n    //SalesTransactions[size2]=Sale(size2,owner,stock(timestamp,high,low,open,close,volume,owner),close,Buyer,true,true);\r\n   \r\n    return true;\r\n   }\r\n   function sellShareofaStock(uint256 timestamp,uint256 high,uint256 low,uint sale_price,uint256 open,\r\n   string memory Financial_Instrument,uint256 close,uint volume,string memory seller) public returns (Sale memory s)\r\n   {\r\n       size2+=1;\r\n       SalesTransactions[size2]=Sale(size2,seller,stock(timestamp,high,low,open,close,volume,Financial_Instrument),sale_price,\"xxxxxx\",true,false);\r\n       return SalesTransactions[size2];\r\n   }\r\n   function UpdatesellShareofAstock(uint _id,string memory customer) public returns (Sale memory s)\r\n   {\r\n       SalesTransactions[_id].customer=customer;\r\n       SalesTransactions[_id].sold=true;\r\n       stock  memory stock_=SalesTransactions[_id].stock_;\r\n       stock_.owner=SalesTransactions[_id].seller;\r\n       size+=1;\r\n       PaymentTransactions[size]=payment(customer,SalesTransactions[_id].sale_price, stock_);\r\n       return SalesTransactions[_id];\r\n   }\r\n  \r\n \r\nfunction getPaymentTransactionsList() public view returns (payment[] memory) \r\n    {\r\n        payment[] memory memoryArray = new payment[](size);\r\n        for(uint i = 0; i < size; i++)\r\n           {\r\n            memoryArray[i] = PaymentTransactions[i];\r\n           }\r\n        return memoryArray;\r\n    }\r\nfunction getSalesTransactionsList() public view returns (Sale[] memory) \r\n    {\r\n        Sale[] memory memoryArray = new Sale[](size);\r\n        for(uint i = 0; i < size; i++)\r\n           {\r\n            memoryArray[i] = SalesTransactions[i];\r\n           }\r\n        return memoryArray;\r\n    }\r\nfunction addFundsToWallet(string memory owner,uint256 amount) public returns(wallet memory w) {\r\nwallets[owner]= wallet(owner,wallets[owner].balance+amount);\r\nreturn wallets[owner];\r\n}\r\nfunction walletexchange(string memory sender,string memory reciever,uint256 amount) public\r\n{  \r\n wallets[sender]= wallet(sender,wallets[sender].balance-amount);  \r\n wallets[reciever]= wallet(reciever,wallets[reciever].balance+amount);\r\n    \r\n}\r\n}",
  "sourcePath": "C:\\Payment_Solidity\\contracts\\Buy_Stocks.sol",
  "compiler": {
    "name": "solc",
    "version": "0.8.14+commit.80d49f37.Emscripten.clang"
  },
  "schemaVersion": "3.4.7",
  "updatedAt": "2022-09-11T02:14:02.335Z",
  "networkType": "ethereum",
  "devdoc": {
    "kind": "dev",
    "methods": {},
    "version": 1
  },
  "userdoc": {
    "kind": "user",
    "methods": {},
    "version": 1
  }
}